:100000000C9445000C9462000C9462000C94620005
:100010000C9462000C9462000C9462000C946200D8
:100020000C9462000C9462000C9462000C946200C8
:100030000C9462000C9462000C9462000C946200B8
:100040000C9462000C9462000C94F8010C9422024F
:100050000C9462000C9462000C9462000C94620098
:100060000C9462000C94620076029602B6027A0347
:10007000820378037C037C03EB02C602EB020903D4
:10008000240353033C035303530311241FBECFEF38
:10009000D8E0DEBFCDBF11E0A0E0B1E0E0E6F8E2DD
:1000A00002C005900D92A833B107D9F710E2A8E37A
:1000B000B1E001C01D92AA3EB107E1F70E945902CA
:1000C0000C942E140C940000CF93DF9384E090E006
:1000D0000E94E60FEC01009781F080E290E00E9420
:1000E000E60F99838883892B21F4CE010E947E102C
:1000F00004C01A821B82CE0102C080E090E0DF9132
:10010000CF910895FC010097A9F08381803290F48B
:100110002FB7F894A081B1813281838190E0830F61
:10012000911D8F719927A80FB91F6C9383818F5FE1
:1001300083832FBF0895EF92FF920F931F93CF9366
:10014000DF931F92CDB7DEB78C017B01442351F0C2
:10015000F70161917F01C80149830E9482004981B2
:100160004150F4CF0F90DF91CF911F910F91FF90ED
:10017000EF900895FC010097A1F08381882391F00E
:10018000A081B1818281A80FB11D8C912FB7F89405
:1001900092819F5F9F7192839381915093832FBF30
:1001A000089580E00895FC01938181E0903208F089
:1001B00080E00895FC0183810895CF93DF93EC01E3
:1001C000009749F0888199810E947E10CE01DF91CD
:1001D000CF910C947E10DF91CF910895CF93DF9350
:1001E000EC01009729F186E091E00E94421188819C
:1001F00099819F938F9385E191E09F938F930E94C4
:100200002E119B818A811F929F931F928F931F9221
:1002100080E28F9381E291E09F938F930E942E1151
:100220008DB79EB70C960FB6F8949EBF0FBE8DBFCC
:10023000DF91CF9108951092C10080913A01909181
:100240003B01892B31F40E94640090933B01809321
:100250003A018091380190913901892B31F40E9443
:100260006400909339018093380187E690E0909381
:10027000C5008093C4001092C0008091C10080939B
:10028000C10086E08093C2008091C100886B80939A
:10029000C10018B8089580913801909139010E94E9
:1002A000DD0080913A0190913B010C94DD00682FB4
:1002B00080913801909139010E948200E1ECF0E0D8
:1002C000808180628083089580913A0190913B0102
:1002D0000C94BA00462FBC018091380190913901ED
:1002E0000E949B00E1ECF0E08081806280830895B1
:1002F00080913801909139010C94D30080913A019A
:1003000090913B010C94DA001F93CF93DF93C82F99
:1003100044E062E371E080913801909139010E94DC
:100320009B008C2F64E60E94650F192F60E3680F15
:1003300080913801909139010E948200DAE0812F8A
:100340006D2F0E94650F805D682F8091380190911C
:1003500039010E9482008C2F6D2F0E94650F905DE5
:10036000692F80913801909139010E948200E1EC5F
:10037000F0E0808180628083DF91CF911F910895AA
:100380000F931F93CF93DF93CDB7DEB727970FB6A9
:10039000F894DEBF0FBECDBF8E010F5F1F4F27E069
:1003A000F80111922A95E9F74AE050E0B8010E945D
:1003B0000D11F80140E08191882319F04F5F46301C
:1003C000D1F7B80180913801909139010E949B00CA
:1003D0008091C10080628093C10027960FB6F89487
:1003E000DEBF0FBECDBFDF91CF911F910F9108955A
:1003F0001F920F920FB60F9211242F933F934F939A
:100400005F936F937F938F939F93AF93BF93EF937C
:10041000FF936091C60080913A0190913B010E9448
:100420008200FF91EF91BF91AF919F918F917F914A
:100430006F915F914F913F912F910F900FBE0F9051
:100440001F9018951F920F920FB60F9211242F93A1
:100450003F934F935F936F937F938F939F93AF934C
:10046000BF93EF93FF938091380190913901FC0184
:100470002381222329F00E94BA008093C60005C080
:100480008091C1008F7D8093C100FF91EF91BF915A
:10049000AF919F918F917F916F915F914F913F911C
:1004A0002F910F900FBE0F901F901895FC01849113
:1004B00008950E94CC030E94D1030E94A60A0E94C4
:1004C000FD030E94190B80E090E008950895CF92FB
:1004D000DF92EF92FF9290E0FC013197E830F10556
:1004E00008F010C1EC5CFF4F0C94A40F0E94960E14
:1004F0002FE0269FF001279FF00D1124E25CFE4FB4
:10050000818181110AC0A281B3812C918685282323
:1005100061E070E080E090E019F460E070E0CB0111
:10052000FF90EF90DF90CF900C94770E0E94960E84
:100530006B017C010E94960E2FE0269FF001279F01
:10054000F00D1124E25CFE4F8181813009F0DAC0A8
:10055000A281B3819685CA94CD28CE28CF2811F4E4
:100560008C91C3C090958C918923C0C00E94960E37
:100570006B017C010E94960E29E0C216D10408F09E
:10058000C1C0F601E45CFF4F0C94A40F6B017C0129
:1005900026E0C21AD108E108F1082EE0C216D10403
:1005A000E104F10408F0AEC02FE0269FF001279F80
:1005B000F00D1124E25CFE4F81E08183A481B581BE
:1005C0008C919685892B8C93A681B7819685909581
:1005D0008C91892333C06B017C0126E0C21AD108BB
:1005E000E108F1082EE0C216D104E104F10408F09C
:1005F00089C02FE0269FF001279FF00D1124E25CB7
:10060000FE4F1182A481B581968590958C918923A6
:10061000DACF663071058105910508F073C02FE0CF
:10062000269FF001279FF00D1124E25CFE4F83E02E
:100630008183A681B7818C919685892B8C93A38524
:10064000B4858C91958551C06B017C0124E1C21A5F
:10065000D108E108F10822E0C216D104E104F10456
:1006600008F050C02FE0269FF001279FF00D1124C5
:10067000E25CFE4F84E02DC06B017C0126E1C21AD2
:10068000D108E108F10826E0C216D104E104F10422
:10069000C8F52FE0269FF001279FF00D1124E25CA2
:1006A000FE4F86E016C06B017C0120E2C21AD10821
:1006B000E108F10824E0C216D104E104F10410F5C8
:1006C0002FE0269FF001279FF00D1124E25CFE4FE2
:1006D00085E08183A385B485958590958C91892348
:1006E0008C93A085B1858C919285892B8C930AC0BF
:1006F0000E94960E0E94960EFF90EF90DF90CF9092
:100700000C94960EFF90EF90DF90CF900895E1E566
:10071000F1E18081918101968193919381E1E935A5
:10072000F807B9F70895811102C00C94870E8AE08A
:100730000C943C0A1092521110925111892B09F01D
:10074000FFCF0895CF93DF93292F30E02431310577
:1007500069F461E070E080E00E947D0DEC01BC0175
:1007600080E090E090680E94770E03C08BE00E94CA
:100770003C0ACE01DF91CF910895292F30E020313E
:10078000310529F02F31310521F40C9467020C94C6
:1007900093038BE00C943C0A0E94660282E00C9466
:1007A000E403089508950C9457010E947E0190E09F
:1007B00008950C9464011092DB1110925A1110925A
:1007C00059111092DC1108950E941B0181E00895D7
:1007D000FB01460F571FE417F50729F02191DC01B3
:1007E0002D93CD01F8CF0895FC019F01281B390BF3
:1007F00041914111FACFC90108950E94160D0E943E
:10080000AA0B0E944D0E60E070E0CB010C94770EB5
:10081000CF92DF92EF92FF926B017C0197FD03C0B4
:1008200081E10E943C0AD701C60188279927AA279F
:10083000B07C0097A105B04839F4C601FF90EF9055
:10084000DF90CF900C94070DC6010E94890B906831
:10085000FF90EF90DF90CF90089596FD90680895F7
:100860000F931F93CF93DF938C01812F99278031B2
:10087000910538F0C801DF91CF911F910F910C9431
:10088000A2030E94A30B90E1899FB00111246C5F29
:100890007F4F81E00E947D0DEC01BC0180E090E083
:1008A00090680E94770ECE010E94070DA80160E0BB
:1008B00070E0FC014083518362837383CE01DF913A
:1008C000CF911F910F9108952F923F924F925F9277
:1008D0006F927F928F929F92AF92BF92CF92DF9250
:1008E000EF92FF920F931F93CF93DF93CDB7DEB7B5
:1008F00063970FB6F894DEBF0FBECDBF9D878C8780
:100900000E94DF0A9B878A8748E050E0BC01CE0145
:1009100001960E94610A29803A802A853B85220E31
:10092000331E2F81888590E0820F911D2E81820FCA
:10093000911D880F991F880F991F0E94DB0D0E943F
:10094000F00E9093DE118093DD118F8181500E9413
:10095000E20E0E94130FC12CD12C7601C1010E941E
:10096000640A8987C10101960E94640A482F882E73
:10097000C10102964A8B0E94640A782E982E4A89F9
:1009800039853E3609F4E7C108F096C03F3308F0D8
:100990004CC03B3308F02AC1323109F459C3B8F4D2
:1009A000393038F4323008F005C1332309F44CC42F
:1009B00048C48985803109F4F6C0813109F041C409
:1009C000B401882777FD8095982F9F7735C3998547
:1009D0009E31A0F49A3108F024C1953109F031C458
:1009E000E091DD11F091DE1124E04202E00DF11DF5
:1009F000112460817181828193812DC3E985E33364
:100A000009F40AC4E63309F4DFC0EE3209F019C470
:100A10000E94960E6B017C010E94870EDC01CB01C7
:100A2000B701A6010E941C0A09C4F985F03609F431
:100A300092C158F5F73509F45DC2B8F4FF3409F4F2
:100A4000D8C3F43509F0FDC30E94960E6B8B0E944B
:100A5000960E6B017C010E94870EDC01CB012B8975
:100A6000B701A6010E94B809EFC32985293509F409
:100A700044C208F43DC22C3509F0E3C381E00E9472
:100A8000A60E0E94770E81E039C23985363609F408
:100A900062C138F4323609F45EC1343609F0D1C38C
:100AA0005AC149854A3609F456C14C3609F453C136
:100AB000483609F0C6C34FC18985873A09F419C180
:100AC00090F58C3709F447C1B0F4843709F416C1A6
:100AD00038F4803709F43FC1823709F0B2C33BC113
:100AE0009985983709F437C19A3709F434C1963794
:100AF00009F0A7C330C1E985E23809F42CC138F404
:100B0000EE3709F428C1E03809F09BC324C1F98508
:100B1000F43809F4FFC008F494C38F2F89598C303E
:100B200008F493C08EC32985243B09F428C330F50B
:100B30002C3A09F49AC1C0F42A3A09F4E2C12B3ADA
:100B400009F07FC3C10108960E94640A582E79E01B
:100B5000872E912CA12CB12C0E94960E6B017C014A
:100B60004F2C0E2D1D2D2BC23985323B09F461C24D
:100B700008F066C2313B09F47CC163C38985893BB7
:100B800020F4863B08F40EC369C299859C3B09F4A6
:100B90001FC39E3B09F427C39B3B09F052C3C4010A
:100BA0000E9430044BC2642F772767FD7095872F12
:100BB000972F51C2E9856E2F70E063507109882725
:100BC00077FD8095982F3AC30091DD111091DE11C9
:100BD000F4E04F02000D111D11240E94870EF80150
:100BE000608371838283938382E032C30E94870E85
:100BF000F9852F2F30E02B5331096901EE24D7FC02
:100C0000E094FE2C220F331F220F331FE091DD11E1
:100C1000F091DE11E20FF31F60837183828393836F
:100C200013C33985832F90E08A51904C880F991F08
:100C3000880F991FE091DD11F091DE11E80FF91F87
:100C40006081718182819381F9C2863038F449854F
:100C50004A5F4987412C512C320104C00E94960EF4
:100C60002B013C010E94960EE985E23A41F128F4FD
:100C7000E03AB9F0E13AE1F005C0F985F33A31F133
:100C8000F43A59F121E0641575058605970509F0D8
:100C900020E0C22ED12CE12CF12C81E02FE9298714
:100CA000D7C221E06415750586059705E9F41BC0D8
:100CB00021E06415750586059705B4F014C021E0A0
:100CC00064157505860597057CF40DC021E0461670
:100CD00057066806790644F006C021E04616570616
:100CE000680679060CF420E0C22ED12CE12CF12C00
:100CF000ABC2C4010397280E391EA0C10E94960EF4
:100D0000CC24DD247601C61AD70AE80AF90AC701FD
:100D1000B601A9C00091DD111091DE1134E043024B
:100D2000000D111D1124F801608171818281938170
:100D30000E942D04472C552447FC5094652C752C9B
:100D4000640D751D861D971D9F77F8016083718363
:100D50008283938373C10E94960E6B017C010E9473
:100D6000960E9B01AC01F985F83709F45FC0D0F409
:100D7000F836E9F150F4F036A9F1F43609F071C013
:100D80002C193D094E095F096CC089858C36A1F18B
:100D9000803709F066C0CA01B901A70196010E9417
:100DA000850F41C099859E3709F452C078F49A376F
:100DB00009F445C09C3709F054C00C2C04C056956A
:100DC0004795379527950A94D2F74BC0E985E038C7
:100DD00009F443C0E23809F044C02C253D254E25D6
:100DE0005F253FC02C0D3D1D4E1D5F1D3AC0C70144
:100DF000B6010E94550F17C0C114D104E104F104DB
:100E000059F483E12B8B388B4A8B598B0E943C0A17
:100E100059894A8938892B89CA01B901A7019601E4
:100E20000E94850F1EC09B01AC011BC00C2C04C08E
:100E3000220F331F441F551F0A94D2F712C00C2CE7
:100E400004C055954795379527950A94D2F709C060
:100E50002C213D214E215F2104C02C293D294E2902
:100E60005F29CA01B9019F77E9C10E94870E6B0112
:100E70007C010E941C0F8111E7C10F811885100FA2
:100E80001D5F8E81180F0E94870E2B013C010E946E
:100E9000870E7D876C87CB010E94DF0A9B878A873C
:100EA00048E050E0BC01CE0101960E94610A0E9418
:100EB000870E2A843B84260E371E802F81950E9440
:100EC000E20E0E94F00E841995099093DE11809332
:100ED000DD11F4E01F9FC00111240E94170E298527
:100EE0002C3A09F0B3C1C701B6010E94770EAEC11A
:100EF0000E94870E0E94870EA7C180E00E94A60E66
:100F00009DC1C10107960E94640AC82EC1010896BE
:100F10000E94640AD12CDC2CCC24C82AEE24D7FCF5
:100F2000E094FE2CC1010B960E94640A182FC101A7
:100F30000C960E94640A082F0E94870E4B015C01E8
:100F40002B013C016C157D058E059F05ECF0802F73
:100F500090E0912BAA2797FDA095BA2F88159905A7
:100F6000AA05BB058CF04C185D086E087F08F2E0FE
:100F7000440C551C661C771CFA95D1F73FE0430ED4
:100F8000511C611C711C05C0E3E04E2E512C612CDC
:100F9000712CC101840D951D0E94640A182FC20195
:100FA00001963BC0C101880D991D0E94640A8415F9
:100FB00049F088E0880E911CA11CB11C5A94511074
:100FC000F1CF1EC0C4010196820D931D0E94640AD8
:100FD0008013EFCFC4010296820D931D0E94640A14
:100FE0008113E7CFC4010396820D931D0E94640A0A
:100FF0008C11DFCF44E0840E911CA11CB11C04C0F5
:10100000812C912C54018394C4010296820D931D6E
:101010000E94640A182FC4010396820D931D0E943A
:10102000640A212F30E0322F2227282B220E331E74
:10103000A0C0C4010E94F50E0E94770E83E008C193
:101040000E94870EAB01BC01C4010E94040FF6CFC1
:10105000842F0E94F40A0E94770EC6CD40310CF016
:101060008AC06101EA85FB85CE1ADF0AEE24D7FC2F
:10107000E094FE2CC4010E94DF0A9B878A8748E027
:1010800050E0BC01CE0101960E94610AF985F63B51
:1010900071F580E00E94A60ECB010E94070D2B8106
:1010A000FC0181819281A381AC016A2F70E0FC81F7
:1010B000FE871F86EE85FF85CF01A0E0B0E04817D0
:1010C00059076A077B0799F0622F8D850E94F10B03
:1010D000982E992787FD90950E94DF0A9B878A8723
:1010E00048E050E0BC01CE0101960E94610A8E8169
:1010F00081950E94E20E0E94F00E2091DD11309148
:10110000DE112C5F3F4F8C01021B130B0E94F00E6F
:101110009093DE118093DD118F8190E003962885F6
:10112000820F911D2E81820F911D880F991F880FAC
:10113000991F0E94DB0D8F8181500E94E20EC70132
:10114000B6010E94770E2C853D85B90180E090E0C4
:101150000E94770EB801882777FD8095982F0E940E
:10116000770E9D868C8629803A808A859B85280EFD
:10117000391E80E06DC0C4010E94BD035FCF0E9494
:10118000870E9F73CB010E94070DF4013196EE0F7D
:10119000FF1FEE0FFF1FE80FF91F60817181828131
:1011A00093814ACF0E94870E6B017C010E94870EBB
:1011B000CB010E94070DF4013196EE0FFF1FEE0FD9
:1011C000FF1FE80FF91FC082D182E282F38236CF7F
:1011D0004A8B0E94870E4A890E947109BC0180E0F7
:1011E00090E0906838CF0E94870ECB010E949D0945
:1011F00025C00E94960E2B013C010E94960E6B01A9
:101200007C010E94870EDC01CB0193018201B701B2
:10121000A6010E94EE0918C00E94960E6B017C0187
:101220000E94870EDC01CB01B701A6010E94D509FF
:10123000682F772767FD7095872F972F0E94770E6D
:1012400003C082E10E943C0A81E002C083E019866B
:10125000280E311C99859C3A19F0913B09F07ECB00
:101260008F8181950E94E20E2F81888590E0820F08
:10127000911D2E81820F911D880F991F880F991F34
:101280000E94170E63960FB6F894DEBF0FBECDBF57
:10129000DF91CF911F910F91FF90EF90DF90CF9052
:1012A000BF90AF909F908F907F906F905F904F9086
:1012B0003F902F900895883059F020F48450823068
:1012C00048F406C0893059F08A3021F484E008954A
:1012D00081E0089588E00E943C0A80E0089582E061
:1012E0000895CF92DF92EF92FF92CF93DF931F92F8
:1012F000CDB7DEB76B017C01842F49830E945B0967
:10130000282F30E02C9DB0012D9D700D3C9D700D5F
:1013100011246F5F7F4F80E00E947D0D7C010E9451
:10132000070D4981FC014083C7010F90DF91CF91E8
:10133000FF90EF90DF90CF9008950F931F93CF937E
:10134000DF93EC010E94AE0C8C01CE010E94070DD0
:10135000FC0180810E945B09682F70E0C8010E9437
:10136000710F80E090E0DF91CF911F910F91089570
:10137000CF93DF9300D000D01F92CDB7DEB72D837F
:1013800049835A836B837C830E94070D49815A816C
:10139000840F951F2D81FC0121830F900F900F90DA
:1013A0000F900F90DF91CF910895CF93DF9300D0EE
:1013B00000D0CDB7DEB749835A836B837C830E940C
:1013C000070D49815A81840F951FFC0181810F907F
:1013D0000F900F900F90DF91CF910895CF92DF92F1
:1013E000EF92FF920F931F93CF93DF9300D000D023
:1013F000CDB7DEB76801790149835A836B837C835B
:101400000E94070D49815A81FA01EE0FFF1FEE0F6E
:10141000FF1FE80FF91FC182D282E382F4820F908E
:101420000F900F900F90DF91CF911F910F91FF9030
:10143000EF90DF90CF900895CF93DF9300D000D04E
:10144000CDB7DEB749835A836B837C830E94070D37
:1014500049815A81FA01EE0FFF1FEE0FFF1FE80FBF
:10146000F91F61817281838194810F900F900F9099
:101470000F90DF91CF9108950C94D203CF92DF9219
:10148000EF92FF920F931F93CF93DF937A01EB01BB
:101490008C016B01C40ED51ECC15DD0541F0CE01CB
:1014A0000E945602F80181938F012196F5CFC70162
:1014B000DF91CF911F910F91FF90EF90DF90CF9030
:1014C00008957F770C943E0ACF93DF931F92CDB798
:1014D000DEB7BC017F7741E050E0CE0101960E946B
:1014E0003E0A89810F90DF91CF910895CF93DF93CA
:1014F00000D0CDB7DEB7BC017F7742E050E0CE012F
:1015000001960E943E0A89819A810F900F90DF9187
:10151000CF910895CF93DF9300D000D0CDB7DEB741
:10152000BC017F7744E050E0CE0101960E943E0A64
:1015300069817A818B819C810F900F900F900F9021
:10154000DF91CF9108950895089508950F931F9303
:101550008EE391E00E948A0A8B019C010773112798
:1015600022273E7BDC01CB01BE6B081719072A0737
:101570003B0711F08EE007C082E491E00E94640A0C
:10158000823029F08FE00E943C0A80E014C088E499
:1015900091E00E94760A8C0186E491E00E94760A2E
:1015A0009801281B390BC9019695879596958795C3
:1015B0008093DF1181E01F910F9108950895CF93DB
:1015C000DF93EC018AE491E00E94760A9E0143E0F9
:1015D000220F331F4A95E1F7280F391FC901825C9A
:1015E0009E4FDF91CF910895CF93DF939091DF11BC
:1015F000C82FD0E0891790F486E491E00E94760A23
:10160000BE01660F771F660F771F680F791FCB012A
:10161000825C9E4FDF91CF910C948A0ABE01691BB8
:101620007109882777FD8095982F906CDF91CF9175
:1016300008955F926F927F928F929F92AF92BF9226
:10164000CF92DF92EF92FF920F931F93CF93DF938E
:1016500083E491E00E94640A782E84E491E00E9481
:10166000760A7C010E94DF0A02960E94760AC92F40
:101670000E9430044C01CC2ED12C00E010E0071564
:1016800048F5C8010E94DF0AEC010E94760ACE01EB
:1016900002960E94760A692ECE0104960E94640A80
:1016A000582ECE0105960E94640ACE0106960E942D
:1016B000640ACE0107960E94640A50FE08C0A62C58
:1016C000B12CCA14DB0419F4C8010E9464040F5F32
:1016D0001F4FD5CF81E090E00E94570C82E090E050
:1016E0000E94570CB40180E090E00E94770EC70181
:1016F000DF91CF911F910F91FF90EF90DF90CF90EE
:10170000BF90AF909F908F907F906F905F900C9460
:1017100064040F931F93CF93DF938C0188E491E0CF
:101720000E94760AEC01C25CDE4FC801880F991F47
:101730008C0F9D1F0E94760A8C0F9D1FDF91CF9109
:101740001F910F91089590E0880F991F825B9E4F23
:101750000C94640A8CE491E00C94640ADF92EF929A
:10176000FF920F931F93CF93DF93CDB7DEB72897E8
:101770000FB6F894DEBF0FBECDBFD12C082F10E0FE
:10178000E62EF12C83E491E00E94640AD816C0F49E
:101790008D2D90E00E94DF0ABC0148E050E0CE01B0
:1017A00001960E94610A2B813C81432F55274017E7
:1017B000510721F433272E153F0521F0D394E2CFB2
:1017C0008FEF01C08D2D28960FB6F894DEBF0FBEA7
:1017D000CDBFDF91CF911F910F91FF90EF90DF90E0
:1017E0000895CF93DF93C82FD62F6D2F8C2F0E9493
:1017F000AE0B8F3F61F480914D0190914E018C0FA3
:10180000911D8C0F911D0E94640AC82FEECFDF91AD
:10181000CF910895640F751FFC01E40FF51FCB01F4
:10182000841B950B6817790729F0DB012E91BD0108
:101830002293F8CF0895EF92FF920F931F93CF93C7
:10184000DF93C0913E11D0913F11E12C8FE0F82E33
:10185000C115FFE0DF0720F58E0100521E4EF80192
:1018600080819181892B41F08481958181309F40D5
:1018700018F081E00E943C0AF80184819581069667
:1018800097012C1B3D0B2817390718F482E00E94A2
:101890003C0AF801848195810696C80FD91FD8CFDC
:1018A000DF91CF911F910F91FF90EF9008952091BC
:1018B0003E1130913F1121154FE0340778F4F901C2
:1018C000E052FE4E408151814817590751F0448142
:1018D00055814A5F5F4F240F351FEDCF80E090E0C8
:1018E0000895CF010895CF93DF93C1E0D0E0CE01FA
:1018F0000E94570C892B29F02196C9F780E090E0CF
:1019000001C0CE01DF91CF910895CF93DF93EA011B
:10191000269620913E1130913F11D901A052BE4E22
:101920001496ED91FC911597EC17FD0798F0EC1BC0
:10193000FD0B1596FC93EE931497E20FF31FEA51FB
:10194000FE4E9183808370E073836283558344836A
:1019500081E001C080E0DF91CF910895CF93DF93C4
:101960000E94570CEC01009719F484E00E943C0A95
:101970008C819D81DF91CF910895DF92EF92FF924C
:101980000F931F93CF93DF93A0E0B0E0B068209156
:101990003E1130913F1121154FE0340750F5F90108
:1019A000E052FE4E4281538104811581452BE1F0C6
:1019B0007801F694E794F694E794D12CCD2DD0E0FD
:1019C000CE15DF0588F4CC0FDD1FCC0FDD1FCE0F49
:1019D000DF1F4E815F8168857985481759076A073F
:1019E0007B0749F0D394EACF0A5F1F4F200F311FC6
:1019F000D2CF80E001C081E0DF91CF911F910F91A4
:101A0000FF90EF90DF90089580EE91E10895CF93DD
:101A1000DF930E94570CEC01009719F484E00E94B8
:101A20003C0ACE010696DF91CF9108951092E11104
:101A30001092E0111092E3111092E2118AEF9EE0F1
:101A40009093E5118093E4110895EF92FF920F9324
:101A50001F93CF93DF93C0913E11D0913F11C115D9
:101A6000FFE0DF07B8F5CE0180529E4E7C01FC01FD
:101A7000048115810A5F1F4F80819181009739F1A0
:101A80000E942A0F811123C0F701808191810E9459
:101A9000BD0C81111CC080913E1190913F11AE018F
:101AA000481B590BBC0160527E4E800F911F805223
:101AB0009E4E0E940A0CE0913E11F0913F11E052BF
:101AC000FE4E84819581800F911F95838483C00F82
:101AD000D11FC5CFC115DF4049F082E0DF91CF9122
:101AE0001F910F91FF90EF900C943C0ADF91CF91E2
:101AF0001F910F91FF90EF900895FF920F931F9306
:101B0000CF93DF93F82E8B010E94730CEC01A80198
:101B10006F2D0E94850C81110CC00E94250DA8011B
:101B20006F2DCE010E94850C811103C083E00E94BD
:101B30003C0ACE01DF91CF911F910F91FF90089544
:101B4000EF92FF920F931F93CF93DF938C017B0152
:101B5000E0913E11F0913F11E052FE4ECB0106960E
:101B6000248135812817390710F00E94250DC801FE
:101B70000E94570CEC01A7016A81C8010E94850CE4
:101B8000811103C083E00E943C0AC8010E94570CE7
:101B90004C815D81BE016A5F7F4F06960E94E8031B
:101BA0008FEF90E099838883DF91CF911F910F9100
:101BB000FF90EF9008950F931F93CF93DF938C01C5
:101BC000C0913E11D0913F11C052DE4E8881998163
:101BD000892B19F082E00E943C0A8C819D8180173C
:101BE000910710F40E94250D0C80DD81C02DC017D7
:101BF000D10718F485E00E943C0A80913E11909133
:101C00003F11800F911F90933F1180933E11FC0173
:101C1000E052FE4E1182108213821282C01BD10B41
:101C2000D583C483DF91CF911F910F9108950F93B6
:101C30001F93CF93DF938C01C0913E11D0913F1140
:101C4000C052DE4E88819981892B19F082E00E9472
:101C50003C0A80913E1190913F118017910718F432
:101C600086E00E943C0A8C819D8120913E1130913A
:101C70003F11201B310B30933F1120933E11F9018E
:101C8000E052FE4E11821082800F911F9583848353
:101C9000DF91CF911F910F910895CF93DF93C82FBC
:101CA0000E94040D90934511809344119C0124508F
:101CB00031093093431120934211D0E0CE010196B7
:101CC000880F991F880F991F0E94DB0DCC0FDD1F15
:101CD000CC0FDD1F20914211309143112C0F3D1F7D
:101CE0003093431120934211DF91CF910895E091F9
:101CF0004211F09143119F012C5F3F4F30934311EC
:101D00002093421164837583868397830895E091BD
:101D10004211F0914311CF010497909343118093A6
:101D2000421160817181828193810895E091421115
:101D3000F0914311CF010497909343118093421186
:101D400060817181828193810C942D04E091421114
:101D5000F091431194E0899FE019F1091124608109
:101D60007181828193810895E0914211F091431134
:101D700094E0899FE019F1091124608171818281C9
:101D800093810C942D04E0914211F0914311CF0105
:101D900004979093431180934211608171818281F5
:101DA00093810C940804E0914211F091431194E066
:101DB000899FE019F10911246081718182819381E9
:101DC0000C940804209142113091431194E089024F
:101DD000200D311D11243093431120934211089599
:101DE00080914211909143110895880F991F880F97
:101DF000991FE0914411F0914511E80FF91F60819E
:101E00007181828193810895880F991F880F991F8E
:101E1000E0914411F0914511E80FF91F408351837F
:101E2000628373830895809142119091431190933E
:101E3000411180934011089581E0409142115091E9
:101E4000431120914011309141114217530709F07D
:101E500080E00895CF93DF93A0E0B0E0B068C09138
:101E60004411D091451120914211309143112C1B06
:101E70003D0B35952795359527952F5F3F4FE0E032
:101E8000F0E0E217F30758F449915991699179917B
:101E9000481759076A077B0721F03196F2CF80E097
:101EA00001C081E0DF91CF910895DB018F939F9373
:101EB0000E94AA0FBF91AF91A29F800D911DA39F79
:101EC000900DB29F900D11240895991B79E004C0E4
:101ED000991F961708F0961B881F7A95C9F7809569
:101EE0000895AA1BBB1B51E107C0AA1FBB1FA61761
:101EF000B70710F0A61BB70B881F991F5A95A9F7B3
:101F000080959095BC01CD010895052E97FB1EF498
:101F100000940E949C0F57FD07D00E94B50F07FC4C
:101F200003D04EF40C949C0F50954095309521951C
:101F30003F4F4F4F5F4F08959095809570956195F5
:101F40007F4F8F4F9F4F0895EE0FFF1F0590F49125
:101F5000E02D09940E94D70FA59F900DB49F900D7E
:101F6000A49F800D911D11240895A1E21A2EAA1B91
:101F7000BB1BFD010DC0AA1FBB1FEE1FFF1FA21739
:101F8000B307E407F50720F0A21BB30BE40BF50B36
:101F9000661F771F881F991F1A9469F760957095BF
:101FA000809590959B01AC01BD01CF010895A29F42
:101FB000B001B39FC001A39F700D811D1124911D1D
:101FC000B29F700D811D1124911D0895CF93DF9351
:101FD0008230910510F482E090E0E091E220F091EF
:101FE000E32020E030E0A0E0B0E0309739F140811C
:101FF000518148175907B8F04817590771F4828181
:102000009381109729F013969C938E9312972CC06E
:102010009093E3208093E22027C02115310531F011
:102020004217530718F0A901DB0101C0EF019A0123
:10203000BD01DF010280F381E02DD7CF21153105ED
:10204000F9F0281B390B2430310580F48A819B81FB
:102050006115710521F0FB019383828304C0909385
:10206000E3208093E220FE01329644C0FE01E20F9D
:10207000F31F8193919322503109398328833AC009
:102080002091E0203091E120232B41F420910201A6
:10209000309103013093E1202093E0202091000152
:1020A000309101012115310541F42DB73EB7409122
:1020B000040150910501241B350BE091E020F091C3
:1020C000E120E217F307A0F42E1B3F0B2817390776
:1020D00078F0AC014E5F5F4F2417350748F04E0F84
:1020E0005F1F5093E1204093E0208193919302C0C1
:1020F000E0E0F0E0CF01DF91CF910895CF93DF933F
:10210000009709F487C0FC01329713821282C091B4
:10211000E220D091E320209781F420813181280FA3
:10212000391F8091E0209091E1208217930779F583
:10213000F093E120E093E0206DC0DE0120E030E08C
:10214000AE17BF0750F412964D915C9113979D0105
:102150004115510509F1DA01F3CFB383A283408120
:102160005181840F951F8A179B0771F48D919C9163
:102170001197840F951F02969183808312968D91FB
:102180009C911397938382832115310529F4F09351
:10219000E320E093E2203EC0D9011396FC93EE9336
:1021A00012974D915D91A40FB51FEA17FB0779F4C3
:1021B00080819181840F951F0296D90111969C937D
:1021C0008E938281938113969C938E931297E0E075
:1021D000F0E08A819B81009719F0FE01EC01F9CFB4
:1021E000CE01029628813981820F931F2091E02031
:1021F0003091E1202817390769F4309729F41092BB
:10220000E3201092E22002C013821282D093E120D8
:10221000C093E020DF91CF910895FB019F01E894E6
:102220004230C4F04532B4F44A3029F497FB1EF42E
:10223000909581959F4F642F77270E94710F805D45
:102240008A330CF0895D8193CB010097A1F716F4D6
:102250005DE251931082C9010C945713A0E0B0E0E5
:10226000E4E3F1E10C940714FE013596619171915C
:10227000AF018091E6209091E7200E946F11E2E08B
:102280000C9423140F931F93CF93DF93E091E620D8
:10229000F091E720238121FF1BC0EC0100E010E05A
:1022A00089916091E6207091E720DB011896ED910D
:1022B000FC911997882331F00995892B89F30FEF49
:1022C0001FEFEECF8AE00995892B11F4C80102C0F7
:1022D0008FEF9FEFDF91CF911F910F910895ACE0A9
:1022E000B0E0E5E7F1E10C94F7137C016B018A01A2
:1022F000FC0117821682838181FFBDC1CE01019648
:102300004C01F7019381F60193FD859193FF819133
:102310006F01882309F4ABC1853239F493FD8591AF
:1023200093FF81916F01853229F4B70190E00E94FB
:102330006713E7CF512C312C20E02032A0F48B32F0
:1023400069F030F4803259F0833269F420612CC096
:102350008D3239F0803339F4216026C02260246048
:1023600023C0286021C027FD27C030ED380F3A3048
:1023700078F426FF06C0FAE05F9E300D1124532E3C
:1023800013C08AE0389E300D1124332E20620CC019
:102390008E3221F426FD6BC1206406C08C3611F408
:1023A000206802C0883641F4F60193FD859193FFC1
:1023B00081916F018111C1CF982F9F7D95549330EA
:1023C00028F40C5F1F4FFFE3F9830DC0833631F013
:1023D000833771F0833509F05BC022C0F80180813A
:1023E00089830E5F1F4F44244394512C540115C020
:1023F0003801F2E06F0E711CF801A080B18026FF59
:1024000003C0652D70E002C06FEF7FEFC5012C8720
:102410000E944C132C0183012C852F77222E17C08C
:102420003801F2E06F0E711CF801A080B18026FF28
:1024300003C0652D70E002C06FEF7FEFC5012C87F0
:102440000E9441132C012C852068222E830123FC3D
:102450001BC0832D90E048165906B0F4B70180E206
:1024600090E00E9467133A94F4CFF50127FC859120
:1024700027FE81915F01B70190E00E946713311040
:102480003A94F1E04F1A51084114510471F7E5C034
:10249000843611F0893639F5F80127FF07C06081CD
:1024A0007181828193810C5F1F4F08C060817181AF
:1024B000882777FD8095982F0E5F1F4F2F76B22EBD
:1024C00097FF09C090958095709561957F4F8F4FCC
:1024D0009F4F2068B22E2AE030E0A4010E94991399
:1024E000A82EA81844C0853729F42F7EB22E2AE0E2
:1024F00030E025C0F22FF97FBF2E8F36C1F018F4DF
:10250000883579F0B4C0803719F0883721F0AFC032
:102510002F2F2061B22EB4FE0DC08B2D8460B82EFB
:1025200009C024FF0AC09F2F9660B92E06C028E07C
:1025300030E005C020E130E002C020E132E0F801E7
:10254000B7FE07C060817181828193810C5F1F4F4C
:1025500006C06081718180E090E00E5F1F4FA40192
:102560000E949913A82EA818FB2DFF77BF2EB6FE48
:102570000BC02B2D2E7FA51450F4B4FE0AC0B2FC64
:1025800008C02B2D2E7E05C07A2C2B2D03C07A2C53
:1025900001C0752C24FF0DC0FE01EA0DF11D8081E4
:1025A000803311F4297E09C022FF06C0739473940E
:1025B00004C0822F867809F0739423FD13C020FF96
:1025C00006C05A2C731418F4530C5718732C731438
:1025D00068F4B70180E290E02C870E94671373943F
:1025E0002C85F5CF731410F4371801C0312C24FF5B
:1025F00012C0B70180E390E02C870E9467132C85FE
:1026000022FF17C021FF03C088E590E002C088E7E1
:1026100090E0B7010CC0822F867859F021FD02C0EE
:1026200080E201C08BE227FD8DE2B70190E00E94BD
:102630006713A51438F4B70180E390E00E94671394
:102640005A94F7CFAA94F401EA0DF11D8081B701E5
:1026500090E00E946713A110F5CF332009F451CE0A
:10266000B70180E290E00E9467133A94F6CFF70139
:102670008681978102C08FEF9FEF2C96E2E10C9448
:102680001314FC010590615070400110D8F780953B
:1026900090958E0F9F1F0895FC016150704001902E
:1026A0000110D8F7809590958E0F9F1F0895DC013B
:1026B000FC01672F71917723E1F7329704C07C9179
:1026C0006D9370836291AE17BF07C8F308950F939F
:1026D0001F93CF93DF93182F092FEB018B8181FD7F
:1026E00003C08FEF9FEF20C082FF10C04E815F813B
:1026F0002C813D81421753077CF4E881F9819F01C9
:102700002F5F3F4F39832883108306C0E885F98502
:10271000812F0995892B29F72E813F812F5F3F4F0C
:102720003F832E83812F902FDF91CF911F910F91A7
:102730000895FA01AA27283051F1203181F1E89457
:102740006F936E7F6E5F7F4F8F4F9F4FAF4FB1E0A4
:102750003ED0B4E03CD0670F781F891F9A1FA11D9F
:10276000680F791F8A1F911DA11D6A0F711D811DA0
:10277000911DA11D20D009F468943F912AE0269F65
:1027800011243019305D3193DEF6CF010895462FC4
:102790004770405D4193B3E00FD0C9F7F6CF462FA5
:1027A0004F70405D4A3318F0495D31FD405241930E
:1027B00002D0A9F7EACFB4E0A695979587957795CB
:1027C0006795BA95C9F700976105710508959B0152
:1027D000AC010A2E06945795479537952795BA95DB
:1027E000C9F7620F731F841F951FA01D08952F92B4
:1027F0003F924F925F926F927F928F929F92AF9291
:10280000BF92CF92DF92EF92FF920F931F93CF93DD
:10281000DF93CDB7DEB7CA1BDB0B0FB6F894DEBF74
:102820000FBECDBF09942A88398848885F846E849A
:102830007D848C849B84AA84B984C884DF80EE80E4
:10284000FD800C811B81AA81B981CE0FD11D0FB6ED
:10285000F894DEBF0FBECDBFED010895F894FFCF11
:102860000000EA20200043697263756C61722042A7
:102870007566663A0063622D3E6275663A25730A94
:1028800000733A25642C683A25642C6C3A25640A56
:082890000A0063686172000098
:00000001FF
